:020000040000FA
:060000000A128A110C280F
:10000800FE00030EF0000A08F1000A128A11232CE0
:100018000A128A110F288313383084004B300A12D1
:100028008A1114240A128A1183010A128A11EF29EB
:1000380083120313B3002530AB002B08AE008D29C3
:1000480025303606031929282A2836283608AB0011
:10005800330884002B08831380000130AB002B0881
:10006800B3078D29B401B501B001240884000A1230
:100078008A110A230A128A110A128A11F1230A1212
:100088008A11031C48284928892883120313B401BC
:10009800B5010A30F2000030F3008312031335086B
:1000A800F5003408F4000A128A1178230A128A111A
:1000B800730883120313B5007208B400240884007F
:1000C8000A128A110A230A128A11D03EAB00FF30A5
:1000D80003180030AC002B08B4070318B50A2C0825
:1000E800B5070130AB002B08A407240884000A12C6
:1000F8008A110A230A128A110A128A11F1230A1292
:100108008A110318882889284D280130831203137F
:10011800A407FF30240784000A128A110A230A124E
:100128008A11B600AB00AC012C08003A03199D28CF
:100138008D292B08003A03199F29643A0319A82826
:100148000D3A0319A8288D292E0884008313000866
:10015800B100840A0008B2000230AB002B08AE07D9
:10016800B21FB728B828C1280330AB002B08B00449
:10017800B109B209B10A0319B20AB601B60A3608BA
:10018800AB002B07013E84000A128A110A230A12C7
:100198008A11AC000A128A110A230A128A11AD00C8
:1001A8002D083202031DDA282C0831020318DD2835
:1001B800DE28DF28E9280130AB002B08B607053018
:1001C8003606031DE828E928C3283408350403192E
:1001D800EE28EF28FB28300803390319F428F528FE
:1001E800FB28FF30B4070318B50AFF30B5073508F8
:1001F800803A803C031D0229340836020318052979
:1002080006291229831203133608AB00AC012B0808
:10021800B4022C08031CB503B50216298312031374
:10022800B401B5013408350403191B291C293329E5
:100238002030AB00330884002B0883138000013082
:10024800AB002B08B307FF30B4070318B50AFF301B
:10025800B50734083504031D322933291C29300811
:10026800033903193829392944292D30AB003308BB
:1002780084002B08831380000130AB002B08B307E0
:100288003608AB002B08AF0084290A30A0000030E4
:10029800A1002F08AB002B07013E84000A128A1127
:1002A8000A230A128A11F2000A128A110A230A1270
:1002B8008A11F3003208F5003108F4000A128A1195
:1002C80039220A128A11730883120313A3007208D1
:1002D800A2000A128A113C230A128A1183120313FC
:1002E8002008303EAC002C08B6003608AB003308B6
:1002F80084002B08831380000130AB002B08B30760
:10030800FF30AB002B08AF072F0A031D8C298D295E
:1003180049290130A407FF30240784000A128A11F2
:100328000A230A128A11AB002B08B6003608031DEF
:100338009E299F29242833088400831380010800FC
:1003480000300A128A11BF220A128A113430F700CB
:10035800F130F600F60BAE29F70BAE29B3290330BE
:100368000A128A11C1230A128A110D30F700FB30D4
:10037800F600F60BBD29F70BBD29C22903300A1276
:100388008A11C1230A128A111D30F7009130F60034
:10039800F60BCC29F70BCC2903300A128A11C1239A
:1003A8000A128A1138300A128A11C1230A128A11D4
:1003B8000C300A128A11C1230A128A1101300A125A
:1003C8008A11C1230A128A1106300A128A11C1231E
:1003D8000A128A1108000A128A1103240A128A11C1
:1003E8000A128A11A4210A128A110A128A111C24DB
:1003F8000A128A11F601F60A01300A128A119D239F
:100408000A128A110B30F5008030F6000A128A11A0
:100418007D220A128A11F601F60A02300A128A119E
:100428009D230A128A111C3083120313B700370860
:10043800A4000030A500A6000030A700A8000030E6
:10044800A900AA003B300A128A111C200A128A113C
:100458003B30F5000030F6000A128A117D220A129C
:100468008A11FE290A128A110C28F701F80172086C
:1004780073040319402A412A782AF901F90A4F2AF4
:1004880001300310F20DF30DFF3E031D452A013024
:10049800F6007608F907F31F522A532A442A013036
:1004A8000310F70DF80DFF3E031D542A730875025B
:1004B800031D602A72087402031C632A642A6B2ACB
:1004C8007208F4027308031CF503F502771401306F
:1004D8000310F30CF20CFF3E031D6C2A0130F902E5
:1004E800031D772A782A532A7808F3007708F20040
:1004F8000800FA01FB01A22A7A087507F8007608B5
:10050800F7000318F70AFA1F8A2AF7037708F90091
:10051800790883120313FF00780884000A128A11ED
:1005280000230A128A110A128A11DB230A128A117D
:100538000130FA070318FB0A0030FB077A08750731
:10054800F8007608F7000318F70AFA1FAC2AF70331
:100558007708F900790883120313FF0078088400EC
:100568000A128A1100230A128A11003A031DBD2AB1
:10057800BE2A802A0800F200721CC32AC42AC82A8C
:10058800831203130814CB2A831203130810F21CD6
:10059800CE2ACF2AD12A8814D22A8810721DD52AA9
:1005A800D62AD82A0815D92A0811F21DDC2ADD2AEC
:1005B800DF2A8815E02A8811721EE32AE42AE62A2F
:1005C8000816E72A0812F21EEA2AEB2AED2A8816EC
:1005D800EE2A8812721FF12AF22AF42A0817F52A3D
:1005E8000813F21FF82AF92AFB2A8817FC2A88130D
:0205F8000800F9
:10060000FF1B0A2B83137F1883170008840A031922
:10061000FF0A080003308A000408840A82070034B5
:10062000013400340A34003464340034E8340334D0
:100630001034273450344F34543420342034203490
:10064000423449344E342034203420345434453438
:100650004D3450340034253433346934203420345C
:100660002034253433346934203420342034203489
:1006700025343434693400348312031320082104F0
:100680000319432B442B732BFB01FB0A522B013024
:100690000310A00DA10DFF3E031D482B0130FA00F1
:1006A0007A08FB07A11F552B562B472B2108230245
:1006B000031D5C2B20082202031C5F2B602B662B82
:1006C0002008A2022108031CA303A3020130031087
:1006D000A10CA00CFF3E031D672B0130FB02031D84
:1006E000722B732B562B2308A1002208A0000800B0
:1006F000F601F701721C7D2B7E2B842B7408F60704
:100700000318F70A7508F70701300310F40DF50D0B
:10071000FF3E031D852B01300310F30CF20CFF3E4E
:10072000031D8C2B72087304031D972B982B7A2BB7
:100730007708F3007608F2000800F8007803031D3C
:10074000A22BA32BAF2B76087F3EF7007708F9008A
:1007500079080A128A11C1230A128A11C02B0230A9
:100760007806031DB42BB52BC02B7608BF3EF700CF
:100770007708F90079080A128A11C1230A128A112E
:100780000800F50083120313071075080A128A1176
:10079000BF220A128A118312031387140B30F4004C
:1007A0006230F300F30BD22BF40BD22B0000831238
:1007B000031387100800F40083120313071474084E
:1007C0000A128A11BF220A128A1183120313871494
:1007D0001A30F300F30BEA2B000083120313871087
:1007E0000800F300F2013A3073020318F82BF92BDA
:1007F000012C30307302031CFE2BFF2B012CF20165
:10080000F20A720C08008312031385018601870126
:100810008801831603178801890183160313850154
:10082000860187018801080064008001840A0406AB
:10083000031900340406152C01300A128A11C12351
:100840000A128A11080071088A00700E8300FE0ED9
:040850007E0E09000F
:04400E00D120FF3F7F
:00000001FF
