:020000040000FA
:060000000A128A110C280F
:10000800FE00030EF0000A08F1000A128A11C32E3E
:100018000A128A110F28FA01FB0183134430840065
:1000280062300A128A11D6260A128A1183010A122C
:100038008A111E280A128A11FA250A128A11F20157
:10004800F301F40120300A128A1185260A128A1156
:100058000A128A116B240A128A110A128A11E526D9
:100068000A128A1183120313061000300A128A1129
:10007800EC260A128A110A128A11CD260A128A114E
:1000880083120313BB003B08D1000614861000300E
:100098000A128A11EC260A128A110A128A11CD262E
:1000A8000A128A1183120313BB003B08D00086147E
:1000B800061100300A128A11EC260A128A110A1255
:1000C8008A11CD260A128A1183120313BB003B083A
:1000D800CF00061578285108CE3EBB003B08D1005A
:1000E8000130BB003B08CD073230510203187D2890
:1000F8007E286F2888285108FB3EBB003B08D100AA
:100108000130BB003B08CC070530510203188D288D
:100118008E287F28F601F60A01300A128A1147262E
:100128000A128A112030F5008030F6000A128A116E
:10013800B6240A128A11F601F60A02300A128A1146
:1001480047260A128A110B3083120313BB003B089F
:10015800A6004D08BC00BD013C08A7003D08A8004A
:100168004C08BE00BF013E08A9003F08AA0050087D
:10017800C000C1014008AB004108AC004F08C200F4
:10018800C3014208AD004308AE0052300A128A117A
:1001980086220A128A115230F5000030F6000A123F
:1001A8008A11B6240A128A11E22850089C3EBB0024
:1001B8003B08D0000130BB003B08CA0764308312FB
:1001C800031350020318E928EA28D928F42850080C
:1001D800F63EBB003B08D0000130BB003B08C90716
:1001E8000A3050020318F928FA28EB280429500885
:1001F800FF3EBB003B08D0000130BB003B08C807EE
:100208005008031D08290929FB2813294F089C3E7B
:10021800BB003B08CF000130BB003B08C707643078
:100228004F020318182919290A2923294F08F63ECD
:10023800BB003B08CF000130BB003B08C6070A30B3
:100248004F020318282929291A2933294F08FF3E64
:10025800BB003B08CF000130BB003B08C5074F0877
:10026800031D372938292A2983160313981C3D2989
:100278003E29772A831203134D080A128A110E2485
:100288000A128A1183120313BB003B08CE004E08E2
:100298009900073083120313BC007C30BB00BB0BF2
:1002A8005329BC0B532900002E30831203139900E5
:1002B800073083120313BC007C30BB00BB0B6229E0
:1002C800BC0B62290000831203134C080A128A111E
:1002D8000E240A128A1183120313BB003B08CE00B6
:1002E8004E089900073083120313BC007C30BB0012
:1002F800BB0B7C29BC0B7C290000563083120313EE
:100308009900073083120313BC007C30BB00BB0B81
:100318008B29BC0B8B290000203083120313990012
:10032800073083120313BC007C30BB00BB0B9A2937
:10033800BC0B9A2900002030831203139900073060
:1003480083120313BC007C30BB00BB0BA929BC0B78
:10035800A9290000831203134A080A128A110E24DD
:100368000A128A1183120313BB003B08CE004E0801
:100378009900073083120313BC007C30BB00BB0B11
:10038800C329BC0BC32900008312031349080A12AE
:100398008A110E240A128A1183120313BB003B0828
:1003A800CE004E089900073083120313BC007C303E
:1003B800BB00BB0BDD29BC0BDD2900008312031336
:1003C80048080A128A110E240A128A11831203138A
:1003D800BB003B08CE004E08990007308312031378
:1003E800BC007C30BB00BB0BF729BC0BF729000015
:1003F8002030831203139900073083120313BC00C3
:100408007C30BB00BB0B062ABC0B062A0000203040
:10041800831203139900073083120313BC007C3046
:10042800BB00BB0B152ABC0B152A00008312031353
:1004380047080A128A110E240A128A11831203131A
:10044800BB003B08CE004E08990007308312031307
:10045800BC007C30BB00BB0B2F2ABC0B2F2A000032
:100468008312031346080A128A110E240A128A11EB
:1004780083120313BB003B08CE004E0899000730D7
:1004880083120313BC007C30BB00BB0B492ABC0B96
:10049800492A00008312031345080A128A110E2400
:1004A8000A128A1183120313BB003B08CE004E08C0
:1004B8009900073083120313BC007C30BB00BB0BD0
:1004C800632ABC0B632A00000D30831203139900C2
:1004D800073083120313BC007C30BB00BB0B722AAD
:1004E800BC0B722A000083120313CD01CC01CB018F
:1004F800CA01C901C801C701C601C50136280A12C7
:100508008A110C2883120313B7002730AF002F0875
:10051800B200F72B25303A060319932A942AA02A09
:100528003A08AF00370884002F0883138000013091
:10053800AF002F08B707F72BB801B901B401260897
:1005480084000A128A114A250A128A110A128A118B
:10055800B1260A128A11031CB22AB32AF32A83127B
:100568000313B801B9010A30F2000030F300831216
:1005780003133908F5003808F4000A128A112226F4
:100588000A128A11730883120313B9007208B8009B
:10059800260884000A128A114A250A128A11D03EB6
:1005A800AF00FF3003180030B0002F08B807031859
:1005B800B90A3008B9070130AF002F08A607260886
:1005C80084000A128A114A250A128A110A128A110B
:1005D800B1260A128A110318F22AF32AB72A01301F
:1005E80083120313A607FF30260784000A128A1114
:1005F8004A250A128A11BA00AF00B0013008003A41
:100608000319072BF72B2F08003A0319092C643A12
:100618000319122B0D3A0319122BF72B32088400F9
:1006280083130008B500840A0008B6000230AF0042
:100638002F08B207B61F212B222B2B2B0330AF001C
:100648002F08B404B509B609B50A0319B60ABA01E0
:10065800BA0A3A08AF002F07013E84000A128A112D
:100668004A250A128A11B0000A128A114A250A126A
:100678008A11B10031083602031D442B30083502B7
:100688000318472B482B492B532B0130AF002F0859
:10069800BA0705303A06031D522B532B2D2B380869
:1006A80039040319582B592B652B340803390319BE
:1006B8005E2B5F2B652BFF30B8070318B90AFF3094
:1006C800B9073908803A803C031D6C2B38083A0278
:1006D80003186F2B702B7C2B831203133A08AF007F
:1006E800B0012F08B8023008031CB903B902802BE7
:1006F80083120313B801B901380839040319852B8B
:10070800862B9D2B2030AF00370884002F088313D9
:1007180080000130AF002F08B707FF30B807031873
:10072800B90AFF30B90738083904031D9C2B9D2BE3
:10073800862B340803390319A22BA32BAE2B2D309B
:10074800AF00370884002F08831380000130AF0002
:100758002F08B7073A08AF002F08B300EE2B0A306E
:10076800A0000030A1003308AF002F07013E84002D
:100778000A128A114A250A128A11F2000A128A11EB
:100788004A250A128A11F3003608F5003508F400E4
:100798000A128A11FC240A128A117308831203139D
:1007A800A3007208A2000A128A11BE250A128A1131
:1007B800831203132008303EB0003008BA003A080C
:1007C800AF00370884002F08831380000130AF0082
:1007D8002F08B707FF30AF002F08B307330A031DF0
:1007E800F62BF72BB32B0130A607FF302607840022
:1007F8000A128A114A250A128A11AF002F08BA0074
:100808003A08031D082C092C8E2A37088400831304
:1008180080010800F400422C3030F2007208FA001F
:100828006A2C3130F2007208FA006A2C3230F20079
:100838007208FA006A2C3330F2007208FA006A2C47
:100848003430F2007208FA006A2C3530F20072086F
:10085800FA006A2C3630F2007208FA006A2C373037
:10086800F2007208FA006A2C3830F2007208FA00B6
:100878006A2C3930F2007208FA006A2C7408F20007
:10088800F3017308003A03194A2C6A2C7208003ADB
:100898000319102C013A0319152C033A03191A2CC1
:1008A800013A03191F2C073A0319242C013A03199A
:1008B800292C033A03192E2C013A0319332C0F3A29
:1008C8000319382C013A03193D2C6A2C0800003012
:1008D8000A128A1180250A128A113430F700F13081
:1008E800F600F60B752CF70B752C7A2C03300A12D0
:1008F8008A116B260A128A110D30F700FB30F600B8
:10090800F60B842CF70B842C892C03300A128A11DD
:100918006B260A128A111D30F7009130F600F60B8B
:10092800932CF70B932C03300A128A116B260A12A8
:100938008A1138300A128A116B260A128A110C3071
:100948000A128A116B260A128A1101300A128A11B8
:100958006B260A128A1106300A128A116B260A12AD
:100968008A11080083120313A001A101DF2C2008BB
:100978007507F8007608F7000318F70AA01FC52CBA
:10098800F7037708F900790883120313FF00780842
:1009980084000A128A1140250A128A110A128A1141
:1009A8009B260A128A11013083120313A007031829
:1009B800A10A0030A10720087507F8007608F7009B
:1009C8000318F70AA01FE92CF7037708F90079083C
:1009D80083120313FF00780884000A128A11402545
:1009E8000A128A11003A031DFA2CFB2CBB2C0800B2
:1009F800F701F801720873040319032D042D3B2D28
:100A0800F901F90A122D01300310F20DF30DFF3E22
:100A1800031D082D0130F6007608F907F31F152D80
:100A2800162D072D01300310F70DF80DFF3E031D9D
:100A3800172D73087502031D232D72087402031CF9
:100A4800262D272D2E2D7208F4027308031CF5039A
:100A5800F502771401300310F30CF20CFF3E031D6E
:100A68002F2D0130F902031D3A2D3B2D162D780844
:100A7800F3007708F2000800FF1B4A2D83137F1844
:100A880083170008840A0319FF0A080005308A0042
:100A98000408840A82070034013400340A3400341C
:100AA80064340034E83403341034273425343134C2
:100AB80069342E34253431346934563420342034A2
:100AC80025343334693420342534333469342E34AE
:100AD80030344334003450344F34543420342034C8
:100AE8002034423449344E342034203420345434B1
:100AF80045344D3450340034F200721C842D852D59
:100B0800892D8312031308148C2D831203130810E4
:100B1800F21C8F2D902D922D8814932D8810721D04
:100B2800962D972D992D08159A2D0811F21D9D2D9A
:100B38009E2DA02D8815A12D8811721EA42DA52DDE
:100B4800A72D0816A82D0812F21EAB2DAC2DAE2D20
:100B58008816AF2D8812721FB22DB32DB52D081728
:100B6800B62D0813F21FB92DBA2DBC2D8817BD2D2F
:100B78008813080083120313200821040319C52DC4
:100B8800C62DF52DA501A50AD42D01300310A00D01
:100B9800A10DFF3E031DCA2D0130A4002408A5079E
:100BA800A11FD72DD82DC92D21082302031DDE2D05
:100BB80020082202031CE12DE22DE82D2008A202C4
:100BC8002108031CA303A30201300310A10CA00CED
:100BD800FF3E031DE92D0130A502031DF42DF52D5F
:100BE800D82D2308A1002208A000080083120313AF
:100BF800850107308600870188018901831603175C
:100C0800880189018316031385018601071087105F
:100C1800071388018901C0308B009A0119309900A7
:100C28008316031787012430831603139800803036
:100C3800831203139800870188010800F601F70161
:100C4800721C272E282E2E2E7408F6070318F70A72
:100C58007508F70701300310F40DF50DFF3E031D6D
:100C68002F2E01300310F30CF20CFF3E031D362E1D
:100C780072087304031D412E422E242E7708F300B8
:100C88007608F2000800F8007803031D4C2E4D2E5C
:100C9800592E76087F3EF7007708F90079080A127E
:100CA8008A116B260A128A116A2E02307806031DF1
:100CB8005E2E5F2E6A2E7608BF3EF7007708F90091
:100CC80079080A128A116B260A128A110800F5009F
:100CD80083120313071075080A128A1180250A1255
:100CE8008A118312031387140B30F4006230F30067
:100CF800F30B7C2EF40B7C2E000083120313871059
:100D08000800F500831603138712751D8C2E8D2E8F
:100D1800912E740894008715952E72087404940017
:100D28008711750873048312031394000800F400F4
:100D380083120313071474080A128A1180250A12F1
:100D48008A118312031387141A30F300F30BAA2EA7
:100D580000008312031387100800F300F2013A30F1
:100D680073020318B82EB92EC12E30307302031C3B
:100D7800BE2EBF2EC12EF201F20A720C0800831299
:100D880003138C1171088A00700E8300FE0E7E0E0C
:100D980009000A128A11DE260A128A118312031325
:100DA8001308080064008001840A0406031900344B
:100DB8000406D72E83160313141CE32EE42EDE2E0E
:100DC800080001300A128A116B260A128A110800DB
:0C0DD800F200720883120313930008005D
:04400E00D420FF3F7C
:00000001FF
