:020000040000FA
:060000000A128A11FA2F1A
:100EF4008312031385018601870188018316031772
:100F04008801890107308316031385008601870150
:100F14008801F401F50108008312031308140B304F
:100F2400F2002630F1005D30F000F00B972FF10B4A
:100F3400972FF20B972F9E2F8312031308108814F8
:100F44000B30F2002630F1005D30F000F00BA82FDA
:100F5400F10BA82FF20BA82FAF2F831203138810C5
:100F640008150B30F2002630F1005D30F000F00B74
:100F7400B92FF10BB92FF20BB92FC02F8312031322
:100F8400081008000A128A117A270A128A11D32F2C
:100F94000A128A118E270A128A110130F4000030D5
:100FA400F50083120313051CD82FD92FF02F7408D2
:100FB40075040319DE2FDF2FCA2FF02F0608031D37
:100FC400E42FE52FE82F01308600EC2F0608F3000C
:100FD400730786008518EF2FF02FE02F7403750434
:100FE4000319F52FF62FEC2FD32F0A128A1100289C
:0C0FF400F401F50183010A128A11C42FD8
:04400E00D120FF3F7F
:00000001FF
