:020000040000FA
:060000000A128A11FA2F1A
:100E3C00831203138501860187018801831603172A
:100E4C008801890107308316031385008601870109
:100E5C008801F601F70108008312031308140B3004
:100E6C00F2002630F1005D30F000F00B3B2FF10B5F
:100E7C003B2FF20B3B2F422F8312031308108814C5
:100E8C000B30F2002630F1005D30F000F00B4C2FEF
:100E9C00F10B4C2FF20B4C2F532F83120313881092
:100EAC0008150B30F2002630F1005D30F000F00B2D
:100EBC005D2FF10B5D2FF20B5D2F642F831203134B
:100ECC00880108000A128A111E270A128A1183123D
:100EDC000313051C722F732FF02F76087704031D54
:100EEC00782F792FF02F0A128A1132270A128A11C1
:100EFC000130F6000030F7008312031386018701DE
:100F0C008801F02F83120313851C8D2F8E2FBC2F7D
:100F1C0006080319922F932FAD2F861F962F972F0C
:100F2C009B2F86010816F601F7010608F3007307DC
:100F3C0086000630F5001330F400AD30F300F30BEF
:100F4C00A52FF40BA52FF50BA52FAC2FBC2F013023
:100F5C0086000630F5001330F400AD30F300F30BCF
:100F6C00B52FF40BB52FF50BB52FBC2F8312031334
:100F7C00051DC12FC22FF02F07080319C62FC72F2D
:100F8C00E12F871FCA2FCB2FCF2F87018815F60192
:100F9C00F7010708F300730787000630F5001330DC
:100FAC00F400AD30F300F30BD92FF40BD92FF50B64
:100FBC00D92FE02FF02F013087000630F5001330C9
:100FCC00F400AD30F300F30BE92FF40BE92FF50B24
:100FDC00E92FF02F760377040319F52FF62F882FBE
:100FEC006D2F0A128A110028F601F70183010A12EB
:040FFC008A11682FBF
:04400E00D120FF3F7F
:00000001FF
