:020000040000FA
:060000000A128A110C280F
:10000800FE00030EF2000A08F3000A128A115528AE
:100018000A128A110F28F801F90183010A128A11BC
:1000280015280A128A117A200A128A11F401F50198
:10003800F60124300A128A119A200A128A118312B0
:1000480003139F18282829283728073083120313F9
:10005800A1007C30A000A00B2F28A10B2F280000A6
:10006800831203139F140D30790203183C283D288E
:1000780040280430880023280D307902031C4528C5
:1000880046284F281D30790203184B284C284F2842
:100098000230880023280130880023280A128A1198
:1000A8000C28831203130C1F5A285B2860281E088B
:1000B800F1007108F9000C138C1D6328642873285B
:1000C8008C110A128A11B0200A128A11F1007108E3
:1000D800F80079080A128A11C0200A128A117308D6
:1000E8008A00720E8300FE0E7E0E0900831203132F
:1000F800850186018701880189010130831603176C
:100108008800890129308316031385008601880138
:1001180089010130831203139F00103083160313E3
:100128009F00C0308B0040308C000800F700831619
:1001380003138712771DA128A228A6287608940001
:100148008715AA287408760494008711770875041F
:1001580083120313940008000A128A11B9200A12A4
:100168008A11831203131308080083160313141C3F
:10017800BE28BF28B9280800F000700883120313AE
:0401880093000800D8
:04400E00D420FF3F7C
:00000001FF
