:020000040000FA
:060000000A128A110C280F
:10000800FE00030EF2000A08F3000A128A116A2899
:100018000A128A110F28F60183010A128A1114287C
:100028000A128A1149200A128A11831203139F188F
:100038001E281F282B281A30F500F830F400F40B7E
:100048002328F50B23280000831203139F14503034
:1000580076020318302831283428043088001928FB
:1000680050307602031C39283A2843285C3076023F
:1000780003183F28402843280230880019280130F7
:10008800880019280A128A110C2883120313850183
:1000980086018701880189010130831603178800CA
:1000A80089010930831603138500860187018801B9
:1000B80089010130831203139F0030308316031324
:1000C8009F00C0308B0040308C000800831203135F
:1000D8000C1F6F28702882281A30F100F830F000C1
:1000E800F00B7428F10B74280000831603131E0804
:1000F800F0007008F600831203130C1373088A00CB
:0A010800720E8300FE0E7E0E090049
:04400E00D120FF3F7F
:00000001FF
