:020000040000FA
:060000000A128A11FC2F18
:100D1A000A128A11A9260A128A11831603131114B8
:100D2A0008000A128A11A9260A128A1183160313C5
:100D3A00111508000A128A11A9260A128A117008C6
:100D4A008312031393000800831603131419AE2E9B
:100D5A00AF2EA92E11081F39031DB42EB52EA92EA8
:100D6A00080083120313850186018701880189011E
:100D7A0083160313850186011830870088018901CB
:100D8A008316031788018901831603139A01193000
:100D9A0099008316031787012430831603139800DA
:100DAA00803083120313980008000A128A11A926B8
:100DBA000A128A118316031391150A128A11A92697
:100DCA000A128A11831203131308F200F30172083C
:100DDA00F4007308F5000A128A11A9260A128A1168
:100DEA0070087104031DFA2EFE2E83160313911642
:100DFA00012F83160313911211167508F100740856
:100E0A00F00008002830831203139400831603139A
:100E1A009101831203132008A4002108A5002208C7
:100E2A00A6002308A70002300310A40DA50DA60DE5
:100E3A00A70DFF3E031D192F2708F3002608F2000D
:100E4A002508F1002408F0000030F7003D30F600D4
:100E5A000930F5000030F4000A128A1196270A12A6
:100E6A008A117008FF3E83160313930094018715B5
:100E7A00071608000A128A11B6260A128A110030C9
:100E8A0083120313A3000130A2008630A100A03010
:100E9A00A0000A128A1107270A128A110A128A1155
:100EAA008D260A128A112930F0000030F1000A1248
:100EBA008A119F260A128A110A128A11A9260A126F
:100ECA008A1183160313111B6B2F6C2F7E2F003090
:100EDA00F000F1000A128A11DA260A128A11700841
:100EEA008312031386000A128A1196260A128A119D
:100EFA00832F0A128A1196260A128A110230831245
:100F0A000313AA000430A900B930A800A80B8B2F3C
:100F1A00A90B8B2FAA0B8B2F922F532F0A128A11F0
:100F2A0000280030FC000030FB000030FA000030DE
:100F3A00F90073087204710470040319A52FA62F0F
:100F4A00F32FFD01FD0AB62F0130F8000310F00D52
:100F5A00F10DF20DF30DF80BAB2F0130F800780804
:100F6A00FD07F31FB92FBA2FA92F0130F80003107C
:100F7A00F90DFA0DFB0DFC0DF80BBC2F7308770267
:100F8A00031DD12F72087602031DD12F7108750235
:100F9A00031DD12F70087402031CD42FD52FE42F00
:100FAA007008F4027108031C710FF5027208031C21
:100FBA00720FF6027308031C730FF70279140130DB
:100FCA000310F30CF20CF10CF00CFF3E031DE52F9D
:100FDA000130FD02031DF22FF32FBA2F7C08F30014
:100FEA007B08F2007A08F1007908F0000800830112
:060FFA000A128A113F2FCC
:04400E00D420FF3F7C
:00000001FF
