:020000040000FA
:060000000A128A110C280F
:10000800FE00030EF1000A08F2000A128A119E2966
:100018000A128A110F28F901FA0183010A128A11BA
:1000280015280A128A1176210A128A1100308312C1
:100038000313AB000130AA008630A900A030A80045
:100048000A128A110F210A128A110A128A11D02162
:100058000A128A112930F3000030F4000A128A11BA
:10006800BD210A128A110A128A11B0210A128A11B4
:1000780083160313111B4128422856280030F30029
:10008800F4000A128A1149210A128A11730883128C
:100098000313B0003008F9000A128A11C7210A12A6
:1000A8008A115B280A128A11C7210A128A110230A2
:1000B80083120313B2000430B100B930B000B00BA2
:1000C8006328B10B6328B20B63286A287628860157
:1000D8008E28013086008E28023086008E28033054
:1000E80086008E287A0883120313B000B101310804
:1000F800003A031980286B283008003A03196B2846
:10010800013A03196D28033A03197028013A0319B3
:1001180073286B2883160313981C9328942829287E
:100128002C30831203139900073083120313B10094
:100138007C30B000B00B9E28B10B9E280000292807
:100148000A128A110C280030F7000030F60000303F
:10015800F5000030F400831203132308220421045D
:1001680020040319B828B9280629F801F80AC9286B
:100178000130F3000310A00DA10DA20DA30DF30B88
:10018800BE280130F3007308F807A31FCC28CD2838
:10019800BC280130F3000310F40DF50DF60DF70D32
:1001A800F30BCF2823082702031DE4282208260280
:1001B800031DE42821082502031DE4282008240241
:1001C800031CE728E828F7282008A4022108031CB4
:1001D800210FA5022208031C220FA6022308031CD4
:1001E800230FA702741401300310A30CA20CA10C56
:1001F800A00CFF3E031DF8280130F802031D052955
:100208000629CD287708A3007608A2007508A10062
:100218007408A00008002830831203139400831682
:1002280003139101831203132808AC002908AD00B9
:100238002A08AE002B08AF0002300310AC0DAD0D3C
:10024800AE0DAF0DFF3E031D21292F08A3002E0878
:10025800A2002D08A1002C08A0000030A7003D3006
:10026800A6000930A5000030A4000A128A11A720B0
:100278000A128A11831203132008FF3E8316031300
:10028800930094018715071608000A128A11B021F5
:100298000A128A118316031391150A128A11B021C2
:1002A8000A128A11831203131308F500F601750860
:1002B800F7007608F8000A128A11B0210A128A118A
:1002C80073087404031D69296D2983160313911695
:1002D800702983160313911211167808F400770811
:1002E800F300080083120313850186018701880142
:1002F8008901831603138501860118308700880158
:1003080089018316031788018901C0308B002030CA
:10031800831603138C009A0119309900831603176A
:100328008701243083160313980090308312031337
:1003380098000800831203138C1EA329A429A92955
:100348001A08F0007008FA008C1272088A00710E00
:100358008300FE0E7E0E0900831603131419B529B7
:10036800B629B02911081F39031DBB29BC29B0299A
:1003780008000A128A11B0210A128A11730883121E
:100388000313930008000A128A11B0210A128A1175
:1003980083160313111508000A128A11B0210A12D4
:0A03A8008A118316031311140800D4
:04400E00D420FF3F7C
:00000001FF
