:020000040000FA
:060000000A128A110C280F
:10000800FE00030EF1000A08F2000A128A117A298A
:100018000A128A110F28F901FA0183010A128A11BA
:1000280015280A128A1152210A128A1100308312E5
:100038000313AB000130AA008630A900A030A80045
:100048000A128A11EB200A128A110A128A11AC21AB
:100058000A128A112930F3000030F4000A128A11BA
:1000680099210A128A110A128A118C210A128A11FC
:1000780083160313111B4128422856280030F30029
:10008800F4000A128A1125210A128A1173088312B0
:100098000313B0003008F9000A128A11A3210A12CA
:1000A8008A115B280A128A11A3210A128A110230C6
:1000B80083120313B2000430B100B930B000B00BA2
:1000C8006328B10B6328B20B63286A2883160313CD
:1000D800981C6F28702829282B3083120313990045
:1000E800073083120313B1007C30B000B00B7A28BC
:1000F800B10B7A28000029280A128A110C2800302E
:10010800F7000030F6000030F5000030F4008312EC
:100118000313230822042104200403199428952892
:10012800E228F801F80AA5280130F3000310A00D11
:10013800A10DA20DA30DF30B9A280130F30073084B
:10014800F807A31FA828A92898280130F30003104E
:10015800F40DF50DF60DF70DF30BAB282308270268
:10016800031DC02822082602031DC02821082502D5
:10017800031DC02820082402031CC328C428D32830
:100188002008A4022108031C210FA5022208031C31
:10019800220FA6022308031C230FA70274140130A0
:1001A8000310A30CA20CA10CA00CFF3E031DD42825
:1001B8000130F802031DE128E228A9287708A300E6
:1001C8007608A2007508A1007408A000080028306D
:1001D80083120313940083160313910183120313EC
:1001E8002808AC002908AD002A08AE002B08AF008B
:1001F80002300310AC0DAD0DAE0DAF0DFF3E031D6B
:10020800FD282F08A3002E08A2002D08A1002C0805
:10021800A0000030A7003D30A6000930A50000303E
:10022800A4000A128A1183200A128A118312031366
:100238002008FF3E831603139300940187150716C1
:1002480008000A128A118C210A128A1183160313D4
:1002580091150A128A118C210A128A11831203132A
:100268001308F500F6017508F7007608F8000A1279
:100278008A118C210A128A1173087404031D4529F6
:1002880049298316031391164C29831603139112D7
:1002980011167808F4007708F30008008312031396
:1002A8008501860187018801890183160313850169
:1002B8008601183087008801890183160317880191
:1002C8008901C0308B002030831603138C009A01FB
:1002D80019309900831603178701243083160313F6
:1002E80098009030831203139800080083120313B8
:1002F8008C1E7F29802985291A08F0007008FA00C9
:100308008C1272088A00710E8300FE0E7E0E0900A0
:10031800831603131419912992298C2911081F395E
:10032800031D972998298C2908000A128A118C2103
:100338000A128A11730883120313930008000A1221
:100348008A118C210A128A118316031311150800C9
:100358000A128A118C210A128A11831603131114A6
:0203680008008B
:04400E00D420FF3F7C
:00000001FF
