:020000040000FA
:060000000A128A110C280F
:10000800FE00030EF7000A08F8000A128A110929EF
:100018000A128A110F28F001F101F201F301F4012B
:1000280083120313A401A501A60183010A128A11F0
:10003800A228F90065283F30A0002008A500A128C3
:100048000630A0002008A500A1285B30A0002008E9
:10005800A500A1284F30A0002008A500A1286630DF
:10006800A0002008A500A1286D30A0002008A50048
:10007800A1287D30A0002008A500A1280730A000F5
:100088002008A500A1287F30A0002008A500A128ED
:100098006730A0002008A500A1287730A00020081C
:1000A800A500A1283930A0002008A500A128793092
:1000B800A0002008A500A1287130A0002008A500F4
:1000C800A128790883120313A000A1012108003A8E
:1000D80003196F28A1282008003A03191F28013A9C
:1000E80003192428033A03192928013A03192E2849
:1000F800073A03193328013A03193828033A031930
:100108003D28013A031942280F3A03194728013AB2
:1001180003194C28033A03195128013A03194728AF
:10012800073A03195628013A03191F28033A0319F5
:100138005B28013A03196028A12808000A128A11CD
:100148005F210A128A117108831203130702031828
:10015800AE28AF28B1280915B22809117408031D63
:10016800B628B728D02871080F39A2002208F00055
:1001780070080A128A111D200A128A117008831247
:100188000313880070080A128A111D200A128A11A6
:10019800831203138800F4287108F039A20022089A
:1001A800F0007008A20004300310A20CFF3E031DEB
:1001B800D8282208A3002308F00070080A128A1120
:1001C8001D200A128A117008831203138800700810
:1001D8000A128A111D200A128A1183120313880039
:1001E8009F18F728F828A7280D3083120313A300B7
:1001F800FB30A200A20BFE28A30BFE2883120313D8
:100208009F14A7280A128A110C280A128A1184211D
:100218000A128A11F6007608F100831203138C1C67
:100228001629172925298C107408031D1C291D2936
:100238002229F401F40A891009142529F401091066
:100248008914061C2829292935297308031D2D29F5
:100258002E293529F301F30A0130F60076088707BD
:100268003F290618382939293F297303031D3D29D9
:100278003E293F29F301861C422943294D2972084A
:10028800031D472948294D29F201F20A0130870246
:10029800572986185029512957297203031D5529B2
:1002A80056295729F2010B1078088A00770E830027
:1002B800FE0E7E0E09008312031385018601870155
:1002C8008801890183160317880101308900831684
:1002D80003138501073086008701880189010330EF
:1002E80096006130831203139F00C8308B004030A2
:1002F800831603138C000430831203139200080042
:10030800831203130C1F89298A298F291E08F500D7
:080318007508A4000C13080095
:04400E00D120FF3F7F
:00000001FF
