:020000040000FA
:060000000A128A110C280F
:10000800FE00030EF0000A08F1000A128A115729AF
:100018000A128A110F28F801F901FA01FB0183017C
:100028000A128A1117280A128A1142210A128A1101
:1000380083120313061C212822283A28070A031DC5
:1000480026282728362887010330F7008A30F6004B
:100058005530F500F50B2E28F60B2E28F70B2E2819
:1000680035283A280708013E8700282883120313F9
:10007800861C3F28402865280708031D4428452872
:100088005528FF3087000330F7008A30F6005530D6
:10009800F500F50B4D28F60B4D28F70B4D28542885
:1000A80065280708FF3E87000330F7008A30F6000E
:1000B8005530F500F50B5E28F60B5E28F70B5E2829
:1000C80065287A08031D69286A2880288312031383
:1000D800891007080F39F5007508F80078080A1222
:1000E8008A11BF200A128A117B0883120313880021
:1000F8000914FA01FA0AA028831203130910070841
:10010800F039F5007508F8007808F5000430031098
:10011800F50CFF3E031D8B287508F6007608F800DD
:1001280078080A128A11BF200A128A117B088312E2
:10013800031388008914FA010D30F600FB30F5002E
:10014800F50BA428F60BA428A928831203139F14DF
:100158000D30F600FB30F500F50BB028F60BB02893
:10016800B528831203131E08F5007508F9001C282A
:100178000A128A110C28F40007293F30F20072088D
:10018800FB0041290630F2007208FB0041295B3070
:10019800F2007208FB0041294F30F2007208FB00A0
:1001A80041296630F2007208FB0041296D30F200E7
:1001B8007208FB0041297D30F2007208FB004129DA
:1001C8000730F2007208FB0041297F30F200720804
:1001D800FB0041296730F2007208FB0041297730A3
:1001E800F2007208FB0041293930F2007208FB0066
:1001F80041297930F2007208FB0041297130F20080
:100208007208FB0041297408F200F3017308003AF0
:1002180003190F2941297208003A0319C128013A24
:100228000319C628033A0319CB28013A0319D02821
:10023800073A0319D528013A0319DA28033A0319AA
:10024800DF28013A0319E4280F3A0319E928013A8B
:100258000319EE28033A0319F328013A0319E92888
:10026800073A0319F828013A0319C128033A031970
:10027800FD28013A031902294129080083120313B2
:1002880085018601870188018901013083160317DA
:1002980088008901831603138501033086008701CE
:1002A80088018901080071088A00700E8300FE0E1B
:0402B8007E0E0900AD
:04400E00D120FF3F7F
:00000001FF
