:020000040000FA
:060000000A128A110C280F
:10000800FE00030EF2000A08F3000A128A11C42B3C
:100018000A128A110F28F601F701F801F901831372
:100028004E30840066300A128A111F260A128A117D
:1000380083010A128A11A82983120313BF002D30E5
:10004800B7003708BA0091292530420603192D2830
:100058002E283A284208B7003F088400370883133F
:1000680080000130B7003708BF079129C001C101DE
:10007800BC012C0884000A128A11A2240A128A11CF
:100088000A128A1101260A128A11031C4C284D28CB
:100098008D2883120313C001C1010A308312031390
:1000A800A0000030A1004108A3004008A2000A12E5
:1000B8008A1182250A128A11831203132108C100AA
:1000C8002008C0002C0884000A128A11A2240A12EF
:1000D8008A11D03EB700FF3003180030B800370847
:1000E800C0070318C10A3808C1070130B70037082C
:1000F800AC072C0884000A128A11A2240A128A1159
:100108000A128A1101260A128A1103188C288D28CE
:100118005128013083120313AC07FF302C078400E9
:100128000A128A11A2240A128A11C200B700B80161
:100138003808003A0319A12891293708003A031909
:10014800A329643A0319AC280D3A0319AC2891295C
:100158003A08840083130008BD00840A0008BE0022
:100168000230B7003708BA07BE1FBB28BC28C5280D
:100178000330B7003708BC04BD09BE09BD0A03191E
:10018800BE0AC201C20A4208B7003707013E84000E
:100198000A128A11A2240A128A11B8000A128A11B4
:1001A800A2240A128A11B90039083E02031DDE286A
:1001B80038083D020318E128E228E328ED28013039
:1001C800B7003708C20705304206031DEC28ED28A2
:1001D800C728400841040319F228F328FF283C08DF
:1001E80003390319F828F928FF28FF30C007031836
:1001F800C10AFF30C1074108803A803C031D062927
:1002080040084202031809290A29162983120313F0
:100218004208B700B8013708C0023808031CC103F8
:10022800C1021A2983120313C001C1014008410405
:1002380003191F29202937292030B7003F088400D7
:100248003708831380000130B7003708BF07FF3035
:10025800C0070318C10AFF30C10740084104031D45
:100268003629372920293C08033903193C293D2917
:1002780048292D30B7003F088400370883138000D1
:100288000130B7003708BF074208B7003708BB007E
:1002980088290A30A7000030A8003B08B7003707B4
:1002A800013E84000A128A11A2240A128A11A000AF
:1002B8000A128A11A2240A128A11A1003E08A30078
:1002C8003D08A2000A128A110C240A128A1183120C
:1002D80003132108AA002008A9000A128A111A2566
:1002E8000A128A11831203132708303EB80038080F
:1002F800C2004208B7003F08840037088313800013
:100308000130B7003708BF07FF30B7003708BB0711
:100318003B0A031D902991294D290130AC07FF3074
:100328002C0784000A128A11A2240A128A11B70023
:100338003708C2004208031DA229A32928283F081C
:1003480084008313800108000A128A1156250A12B4
:100358008A110A128A1174230A128A110A128A113E
:1003680027260A128A11831203139F18BC29BD2954
:10037800D4290D3083120313C400FB30C300C30B10
:10038800C329C40BC329831203139F140D3083128E
:100398000313C400FB30C300C30BD029C40BD029FE
:1003A80083120313A201A20A01300A128A11A92595
:1003B8000A128A11243083120313A1008030A2008C
:1003C8000A128A1152240A128A1183120313A201F3
:1003D800A20A02300A128A11A9250A128A11FD29D5
:1003E8005508CE3EC3004308D5000130C30043087A
:1003F800D30732308312031355020318042A052A3F
:10040800F4290F2A5508FB3EC3004308D5000130E4
:10041800C3004308D207053055020318142A152AC9
:10042800062A1F2A5408CE3EC3004308D4000130D0
:10043800C3004308D107323054020318242A252A5E
:10044800162A2F2A5408FB3EC3004308D400013063
:10045800C3004308D007053054020318342A352A4C
:10046800262A83160313981C3A2A3B2AD72A831272
:10047800031353080A128A1115230A128A118312C8
:100488000313C3004308CE004E0899000D308312B1
:100498000313C400FB30C300C30B502AC40B502AFB
:1004A8002E308312031399000D3083120313C400F6
:1004B800FB30C300C30B5E2AC40B5E2A83120313EE
:1004C80052080A128A1115230A128A118312031379
:1004D800C3004308CE004E0899000D308312031361
:1004E800C400FB30C300C30B772AC40B772A203023
:1004F8008312031399000D3083120313C400FB30D9
:10050800C300C30B852AC40B852A83120313510821
:100518000A128A1115230A128A1183120313C300BF
:100528004308CE004E0899000D3083120313C4000F
:10053800FB30C300C30B9E2AC40B9E2A2E308312A5
:10054800031399000D3083120313C400FB30C3005A
:10055800C30BAC2AC40BAC2A8312031350080A122B
:100568008A1115230A128A1183120313C300430840
:10057800CE004E0899000D3083120313C400FB30DF
:10058800C300C30BC52AC40BC52A0D30831203133D
:1005980099000D3083120313C400FB30C300C30B52
:1005A800D32AC40BD32A0B3083120313C300430886
:1005B800AC005308C400C5014408AD004508AE00AE
:1005C8005208C600C7014608AF004708B0005108E6
:1005D800C800C9014808B1004908B2005008CA005B
:1005E800CB014A08B3004B08B4004F08CC00CD013A
:1005F8004C08B5004D08B60056300A128A11202062
:100608000A128A11563083120313A1000030A20087
:100618000A128A1152240A128A11B7290A128A1157
:100628000C2883120313A0004B2B3030F4007408FD
:10063800F700732B3130F4007408F700732B323055
:10064800F4007408F700732B3330F4007408F700D3
:10065800732B3430F4007408F700732B3530F40032
:100668007408F700732B3630F4007408F700732B06
:100678003730F4007408F700732B3830F40074082E
:10068800F700732B3930F4007408F700732B200837
:10069800F400F5017508003A0319532B732B7408FD
:1006A800003A0319192B013A03191E2B033A0319AF
:1006B800232B013A0319282B073A03192D2B013A4A
:1006C8000319322B033A0319372B013A03193C2B30
:1006D8000F3A0319412B013A0319462B732B0800D3
:1006E80000300A128A11DC240A128A11343083126B
:1006F8000313A300F130A200A20B802BA30B802BC5
:1007080003300A128A11CF250A128A110D3083127A
:100718000313A300FB30A200A20B902BA30B902B7A
:1007280003300A128A11CF250A128A111D3083124A
:100738000313A3009030A200A20BA02BA30BA02BA5
:10074800000003300A128A11CF250A128A113830A4
:100758000A128A11CF250A128A110C300A128A113C
:10076800CF250A128A1101300A128A11CF250A12DE
:100778008A1106300A128A11CF250A128A11080036
:100788007908031DC82BC92BDA2B0A128A111326E4
:100798000A128A11F100710883120313D500F901B6
:1007A800F90AD301D20105309F00E92B0A128A11F8
:1007B80013260A128A11F100710883120313D40058
:1007C800F901D101D00101309F008C1EEC2BED2BDB
:1007D800052C1A08F1007108F8008C122B307806E5
:1007E800031DF72BF82BFD2B0130F1007108CF0703
:1007F800052C2D307806031D022C032C052C013006
:10080800CF0273088A00720E8300FE0E7E0E090066
:1008180083120313A501A601200821040319152C2E
:10082800162C4D2CA401A40A242C01300310A00D71
:10083800A10DFF3E031D1A2C0130F4007408A40713
:10084800A11F272C282C192C01300310A50DA60D4B
:10085800FF3E031D292C21082302031D352C2008E7
:100868002202031C382C392C402C2008A202210813
:10087800031CA303A302251401300310A10CA00C30
:10088800FF3E031D412C0130A402031D4C2C4D2CAE
:10089800282C2608A1002508A000080083120313AD
:1008A800A601A7017B2C26082107A4002208A30083
:1008B8000318A30AA61F612CA3038312031323089A
:1008C800A5002508FF00240884000A128A1198242C
:1008D8000A128A110A128A11EB250A128A110130AA
:1008E80083120313A6070318A70A0030A7072608D0
:1008F8002107A4002208A3000318A30AA61F852C19
:10090800A303831203132308A5002508FF00240866
:1009180084000A128A1198240A128A11003A031DC7
:10092800962C972C572C0800FF1BA22C83137F189A
:1009380083170008840A0319FF0A080004308A0094
:100948000408840A82070034013400340A3400346D
:1009580064340034E8340334103427342534313413
:1009680069342E34253431346934563420342034F3
:100978002534313469342E342534313469345634CD
:10098800203420342034253433346934003420347E
:100998005334313420342034203420345334323426
:1009A8002034203420342034533433342034003479
:1009B800F400741CE02CE12CE52C831203130814BA
:1009C800E82C831203130810F41CEB2CEC2CEE2CEF
:1009D8008814EF2C8810741DF22CF32CF52C0815B4
:1009E800F62C0811F41DF92CFA2CFC2C8815FD2C7A
:1009F8008811741E002D012D032D0816042D0812D0
:100A0800F41E072D082D0A2D88160B2D8812741F29
:100A18000E2D0F2D112D0817122D0813F41F152D4B
:100A2800162D182D8817192D881308008312031303
:100A3800270828040319212D222D512DAB01AB0ABB
:100A4800302D01300310A70DA80DFF3E031D262DE4
:100A58000130F5007508AB07A81F332D342D252D5F
:100A680028082A02031D3A2D27082902031C3D2DB8
:100A78003E2D442D2708A9022808031CAA03AA0210
:100A880001300310A80CA70CFF3E031D452D0130B3
:100A9800AB02031D502D512D342D2A08A80029081A
:100AA800A7000800831203138501860188018701C6
:100AB8000330831603178800890103308316031354
:100AC80085008601880187010130831203139F0086
:100AD800831603139F01C0308B0060308C009A018D
:100AE80019309900831603178701243083160313DE
:100AF800980090308312031398000800F401F50160
:100B080083120313201C892D8A2D902D2208F407A7
:100B18000318F50A2308F50701300310A20DA30DE9
:100B2800FF3E031D912D01300310A10CA00CFF3EC8
:100B3800031D982D20082104031DA32DA42D842D09
:100B48007508A1007408A000080083120313A4000C
:100B58002403031DB02DB12DBD2D22087F3EA30017
:100B68002308A50025080A128A11CF250A128A111E
:100B7800CE2D02302406031DC22DC32DCE2D2208F2
:100B8800BF3EA3002308A50025080A128A11CF2515
:100B98000A128A110800F50083120313071075085A
:100BA8000A128A11DC240A128A1183120313871489
:100BB8000B3083120313A1006130A000A00BE22DBB
:100BC800A10BE22DE72D831203138710080083126F
:100BD8000313A000071420080A128A11DC240A1241
:100BE8008A118312031387141A30F500F50BFA2DB6
:100BF80000008312031387100800F500F4013A304F
:100C080075020318082E092E112E30307502031CA8
:100C18000E2E0F2E112EF401F40A740C0800831204
:100C280003130C1F182E192E1E2E1E08F000700814
:100C3800F6000C13080064008001840A04060319F6
:100C480000340406202E01300A128A11CF250A1218
:040C58008A110800F5
:04400E00D120FF3F7F
:00000001FF
