:020000040000FA
:060000000A128A110C280F
:10000800FE00030EF2000A08F3000A128A113B28C8
:100018000A128A110F28F801F90183010A128A11BC
:1000280015280A128A1160200A128A11F401F501B2
:10003800F60124300A128A117E200A128A118312CC
:1000480003139F182828292823280730831203130D
:10005800A1007C30A000A00B2F28A10B2F280000A6
:10006800831203139F1423280A128A110C2883125F
:1000780003130C1F4028412846281E08F100710868
:10008800F9000C138C1D49284A2859288C110A128A
:100098008A1194200A128A11F1007108F80079086F
:1000A8000A128A11A4200A128A1173088A00720E91
:1000B8008300FE0E7E0E090083120313850186015C
:1000C8008701880189010130831603178800890197
:1000D80021308316031385008601880189010130C8
:1000E800831203139F00C0308B0040308316031324
:1000F8008C000800F700831603138712771D8528E4
:1001080086288A287608940087158E28740876042D
:10011800940087117708750483120313940008006C
:100128000A128A119D200A128A11831203131308D6
:10013800080083160313141CA228A3289D2808006E
:0C014800F00070088312031393000800FD
:04400E00D420FF3F7C
:00000001FF
