:020000040000FA
:060000000A128A110C280F
:10000800FE00030EF1000A08F2000A128A114D28B8
:100018000A128A110F28F50183010A128A1132285F
:100028008312031385018601870188018901013044
:100038008316031788008901831603138501860137
:100048008701880189010130831203139F00C030A2
:100058008B004030831603138C0008000A128A11A3
:1000680014200A128A11831203139F183C283D2872
:1000780037280D30F400FB30F300F30B4128F40B64
:1000880041284628831203139F1437280A128A111D
:100098000C28831203130C1F5228532858281E08B3
:1000A800F0007008F5000C1372088A00710E8300C6
:0600B800FE0E7E0E0900A1
:04400E00D120FF3F7F
:00000001FF
