:020000040000FA
:060000000A128A110C280F
:10000800FE00030EF4000A08F5000A128A111628E9
:100018000A128A110F28F001F101F20183010A1274
:100028008A116A2883120313061C1B281C282828F7
:100038007108031D202821282828F101F10A013020
:10004800F3007308F207322806182B282C283228C8
:100058007103031D302831283228F101861C352808
:10006800362840287008031D3A283B284028F0010C
:10007800F00A0130F2024A288618432844284A2800
:100088007003031D482849284A28F0010B107508F9
:100098008A00740E8300FE0E7E0E0900831203137D
:1000A8008501860187018801890183160317880164
:1000B80089018316031385010330860087018801AF
:1000C800890103309600C8308B0008000A128A1193
:1000D80052200A128A1172088312031388006F28AB
:0600E8000A128A110C2827
:04400E00D120FF3F7F
:00000001FF
