:020000040000FA
:060000000A128A110C280F
:10000800FE00030EF2000A08F3000A128A111628ED
:100018000A128A110F28F701F801F90183010A125F
:100028008A11A02883120313061C1B281C282828C1
:100038007908031D202821282828F901F90A013008
:10004800F10071088807322806182B282C28322836
:100058007903031D302831283228F901861C3528F8
:10006800362840287808031D3A283B284028F801FC
:10007800F80A013088024A288618432844284A2862
:100088007803031D482849284A28F8010B108C1DBD
:100098004E284F2860288C110A128A11BA200A1299
:1000A8008A11F1007108F7008312031308080A1275
:1000B8008A11CA200A128A1173088A00720E8300F4
:1000C800FE0E7E0E090083120313A000831603138D
:1000D800871283120313201D722873287928760843
:1000E80083160313940087157F28740876048316F3
:1000F80003139400871183120313200875049400D6
:10010800080083120313850186018701880189018C
:10011800831603178801890120308316031385008D
:100128000330860087018801890103309600083072
:100138008C00C8308B0008000A128A1185200A1228
:100148008A11F401F501F60124300A128A11672098
:100158000A128A11C73083120313A100B328A10B16
:10016800B228B628AE280A128A110C280A128A1157
:10017800C3200A128A118312031313080800831676
:100188000313141CC828C928C3280800F0007008E5
:08019800831203139300080019
:04400E00D420FF3F7C
:00000001FF
